{
  "_format": "hh-sol-artifact-1",
  "contractName": "CertificateValidator",
  "sourceName": "contracts/CertificateValidator.sol",
  "abi": [
    {
      "inputs": [],
      "stateMutability": "nonpayable",
      "type": "constructor"
    },
    {
      "anonymous": false,
      "inputs": [
        {
          "indexed": false,
          "internalType": "string",
          "name": "certId",
          "type": "string"
        }
      ],
      "name": "CertificateRevoked",
      "type": "event"
    },
    {
      "anonymous": false,
      "inputs": [
        {
          "indexed": false,
          "internalType": "string",
          "name": "certId",
          "type": "string"
        },
        {
          "indexed": false,
          "internalType": "string",
          "name": "certHash",
          "type": "string"
        },
        {
          "indexed": true,
          "internalType": "address",
          "name": "institution",
          "type": "address"
        },
        {
          "indexed": false,
          "internalType": "uint256",
          "name": "timestamp",
          "type": "uint256"
        }
      ],
      "name": "CertificateStored",
      "type": "event"
    },
    {
      "inputs": [
        {
          "internalType": "address",
          "name": "",
          "type": "address"
        }
      ],
      "name": "authorizedInstitutions",
      "outputs": [
        {
          "internalType": "bool",
          "name": "",
          "type": "bool"
        }
      ],
      "stateMutability": "view",
      "type": "function"
    },
    {
      "inputs": [
        {
          "internalType": "string",
          "name": "certId",
          "type": "string"
        },
        {
          "internalType": "string",
          "name": "reason",
          "type": "string"
        }
      ],
      "name": "revokeCertificate",
      "outputs": [],
      "stateMutability": "nonpayable",
      "type": "function"
    },
    {
      "inputs": [
        {
          "internalType": "string",
          "name": "",
          "type": "string"
        }
      ],
      "name": "revokedCertificates",
      "outputs": [
        {
          "internalType": "bool",
          "name": "",
          "type": "bool"
        }
      ],
      "stateMutability": "view",
      "type": "function"
    },
    {
      "inputs": [
        {
          "internalType": "address",
          "name": "_institution",
          "type": "address"
        },
        {
          "internalType": "bool",
          "name": "_auth",
          "type": "bool"
        }
      ],
      "name": "setInstitutionAuth",
      "outputs": [],
      "stateMutability": "nonpayable",
      "type": "function"
    },
    {
      "inputs": [
        {
          "internalType": "string",
          "name": "certId",
          "type": "string"
        },
        {
          "internalType": "string",
          "name": "certHash",
          "type": "string"
        }
      ],
      "name": "storeCertificate",
      "outputs": [],
      "stateMutability": "nonpayable",
      "type": "function"
    },
    {
      "inputs": [
        {
          "internalType": "string",
          "name": "certId",
          "type": "string"
        },
        {
          "internalType": "string",
          "name": "certHash",
          "type": "string"
        }
      ],
      "name": "validateHash",
      "outputs": [
        {
          "internalType": "bool",
          "name": "",
          "type": "bool"
        }
      ],
      "stateMutability": "view",
      "type": "function"
    },
    {
      "inputs": [
        {
          "internalType": "string",
          "name": "certId",
          "type": "string"
        }
      ],
      "name": "verifyCertificate",
      "outputs": [
        {
          "internalType": "string",
          "name": "",
          "type": "string"
        },
        {
          "internalType": "bool",
          "name": "isValid",
          "type": "bool"
        },
        {
          "internalType": "bool",
          "name": "isRevoked",
          "type": "bool"
        }
      ],
      "stateMutability": "view",
      "type": "function"
    }
  ],
  "bytecode": "0x608060405234801561001057600080fd5b50336000908152600160208190526040909120805460ff19169091179055610a678061003d6000396000f3fe608060405234801561001057600080fd5b506004361061007d5760003560e01c80638b23d8751161005b5780638b23d875146100e2578063a6a7747414610104578063bc4f5bad14610132578063ffb465c51461014557600080fd5b80631302de571461008257806316b784fe14610097578063678d3644146100cf575b600080fd5b6100956100903660046105a8565b610158565b005b6100ba6100a53660046105e4565b60016020526000908152604090205460ff1681565b60405190151581526020015b60405180910390f35b6100956100dd3660046106a9565b6101bb565b6100f56100f036600461070d565b610345565b6040516100c69392919061079a565b6100ba61011236600461070d565b805160208183018101805160028252928201919093012091525460ff1681565b6100956101403660046106a9565b61043e565b6100ba6101533660046106a9565b610549565b3360009081526001602052604090205460ff166101905760405162461bcd60e51b8152600401610187906107c4565b60405180910390fd5b6001600160a01b03919091166000908152600160205260409020805460ff1916911515919091179055565b3360009081526001602052604090205460ff166101ea5760405162461bcd60e51b8152600401610187906107c4565b6000826040516101fa919061080d565b9081526020016040518091039020805461021390610829565b1590506102745760405162461bcd60e51b815260206004820152602960248201527f4365727456616c696461746f723a20636572746966696361746520616c726561604482015268191e481cdd1bdc995960ba1b6064820152608401610187565b80516040146102d05760405162461bcd60e51b815260206004820152602260248201527f4365727456616c696461746f723a20696e76616c69642068617368206c656e676044820152610e8d60f31b6064820152608401610187565b806000836040516102e1919061080d565b908152602001604051809103902090816102fb91906108b2565b50336001600160a01b03167f2766b897571198228837e8203f7180e6d8401d6f3a2a5d561330ea1423a8053383834260405161033993929190610972565b60405180910390a25050565b60606000806000808560405161035b919061080d565b9081526020016040518091039020805461037490610829565b80601f01602080910402602001604051908101604052809291908181526020018280546103a090610829565b80156103ed5780601f106103c2576101008083540402835291602001916103ed565b820191906000526020600020905b8154815290600101906020018083116103d057829003601f168201915b505050505090506000808251119050600060028760405161040e919061080d565b9081526040519081900360200190205460ff1690508282801561042f575081155b90989097509095509350505050565b3360009081526001602052604090205460ff1661046d5760405162461bcd60e51b8152600401610187906107c4565b60028260405161047d919061080d565b9081526040519081900360200190205460ff16156104dd5760405162461bcd60e51b815260206004820152601e60248201527f4365727456616c696461746f723a20616c7265616479207265766f6b656400006044820152606401610187565b60016002836040516104ef919061080d565b908152604051908190036020018120805492151560ff19909316929092179091557f266095b5af7e2323760fef151f1d78896740cd2cc1b73a6357ff9e4c3fdae7409061053d9084906109a8565b60405180910390a15050565b60008180519060200120600084604051610563919061080d565b90815260405190819003602001812061057b916109bb565b604051809103902014905092915050565b80356001600160a01b03811681146105a357600080fd5b919050565b600080604083850312156105bb57600080fd5b6105c48361058c565b9150602083013580151581146105d957600080fd5b809150509250929050565b6000602082840312156105f657600080fd5b6105ff8261058c565b9392505050565b634e487b7160e01b600052604160045260246000fd5b600082601f83011261062d57600080fd5b813567ffffffffffffffff8082111561064857610648610606565b604051601f8301601f19908116603f0116810190828211818310171561067057610670610606565b8160405283815286602085880101111561068957600080fd5b836020870160208301376000602085830101528094505050505092915050565b600080604083850312156106bc57600080fd5b823567ffffffffffffffff808211156106d457600080fd5b6106e08683870161061c565b935060208501359150808211156106f657600080fd5b506107038582860161061c565b9150509250929050565b60006020828403121561071f57600080fd5b813567ffffffffffffffff81111561073657600080fd5b6107428482850161061c565b949350505050565b60005b8381101561076557818101518382015260200161074d565b50506000910152565b6000815180845261078681602086016020860161074a565b601f01601f19169290920160200192915050565b6060815260006107ad606083018661076e565b931515602083015250901515604090910152919050565b60208082526029908201527f4365727456616c696461746f723a206e6f7420617574686f72697a656420696e60408201526839ba34ba3aba34b7b760b91b606082015260800190565b6000825161081f81846020870161074a565b9190910192915050565b600181811c9082168061083d57607f821691505b60208210810361085d57634e487b7160e01b600052602260045260246000fd5b50919050565b601f8211156108ad57600081815260208120601f850160051c8101602086101561088a5750805b601f850160051c820191505b818110156108a957828155600101610896565b5050505b505050565b815167ffffffffffffffff8111156108cc576108cc610606565b6108e0816108da8454610829565b84610863565b602080601f83116001811461091557600084156108fd5750858301515b600019600386901b1c1916600185901b1785556108a9565b600085815260208120601f198616915b8281101561094457888601518255948401946001909101908401610925565b50858210156109625787850151600019600388901b60f8161c191681555b5050505050600190811b01905550565b606081526000610985606083018661076e565b8281036020840152610997818661076e565b915050826040830152949350505050565b6020815260006105ff602083018461076e565b60008083546109c981610829565b600182811680156109e157600181146109f657610a25565b60ff1984168752821515830287019450610a25565b8760005260208060002060005b85811015610a1c5781548a820152908401908201610a03565b50505082870194505b5092969550505050505056fea2646970667358221220bdfb7bda808932ed271ad15a6183914bc44aef75e800bc841399d3757b93550064736f6c63430008140033",
  "linkReferences": {},
  "deployedLinkReferences": {}
}